04171733000140SP02002018090521UNI0000102645302001          TRANSPORTE DE ACESSO A INTERNET - 03 MB 0102      000000001000000000001000000000400000000000000000000000000000000400000000000000000000000000000000000000000N1809               000000001000000000000000000000000000000000000000000000000 00     e67b301db88bd0ba0fa5350536dfb127
55637920000107SP02002018090521UNI0000102655302001          TRANSPORTE DE ACESSO A INTERNET - 02 MB 0102      000000001000000000001000000000335000000000000000000000000000000335000000000000000000000000000000000000000N1809               000000001000000000000000000000000000000000000000000000000 00     07867c17685078da2c765a2ef6dc1174
66749011000187SP02002018090521UNI0000102665302001          TRANSPORTE DE ACESSO A INTERNET - 02 MB 0102      000000001000000000001000000000350000000000000000000000000000000350000000000000000000000000000000000000000N1809               000000001000000000000000000000000000000000000000000000000 00     227751926284658cd71cd297816db577
02314269000178SP02002018090521UNI0000102675303001          TRANSPORTE DE ACESSO A INTERNET - 05 MB 0102      000000001000000000001000000000850000000000000000000000000000000850000000000000000000000000000000000000000N1809               000000001000000000000000000000000000000000000000000000000 00     cd794288e4399d37757351061472d5e1
03805416000507SP02002018090521UNI0000102685302001          TRANSPORTE DE ACESSO A INTERNET - 04 MB 0102      000000001000000000001000000000600000000000000000000000000000000600000000000000000000000000000000000000000N1809               000000001000000000000000000000000000000000000000000000000 00     e36e90428a641e16e96934b0a66cd1c7
44191880000104SP02002018090521UNI0000102695304001          TRANSPORTE DE ACESSO A INTERNET - 10 MB 0102      000000001000000000001000000001900000000000000000000000000000001900000000000000000000000000000000000000000N1809               000000001000000000000000000000000000000000000000000000000 00     c48aa6fa924317b5eeef89a1ecd13872
03805237000138SP02002018090521UNI0000102705303001          TRANSPORTE DE ACESSO A INTERNET - 05 MB 0102      000000001000000000001000000000590000000000000000000000000000000590000000000000000000000000000000000000000N1809               000000001000000000000000000000000000000000000000000000000 00     0d2f04baa6db089b5957bd0fb0079dc4
13480775000153SP02002018090521UNI0000102715302001          TRANSPORTE DE ACESSO A INTERNET - 08 MB 0102      000000001000000000001000000001290000000000000000000000000000001290000000000000000000000000000000000000000N1809               000000001000000000000000000000000000000000000000000000000 00     9760c4063a1bba1db3b7bd9fde64d1d8
62007810000127SP02002018090521UNI0000102725302001          TRANSPORTE DE ACESSO A INTERNET - 03 MB 0102      000000001000000000001000000000870000000000000000000000000000000870000000000000000000000000000000000000000N1809               000000001000000000000000000000000000000000000000000000000 00     74061cb8678e89e0298ba014a6f73e0b
62007810000127SP02002018090521UNI0000102725302002          01 ENDEREÇO IP ADICIONAL                0102      000000001000000000001000000000070000000000000000000000000000000070000000000000000000000000000000000000000N1809               000000001000000000000000000000000000000000000000000000000 00     a6c0e0b2c8ec4c9f6cab19da7ac05f8a
02600247000174SP02002018090521UNI0000102735307001          TRANSPORTE DE ACESSO A INTERNET - 02 MB 0102      000000001000000000001000000000720000000000000000000000000000000720000000000000000000000000000000000000000N1809               000000001000000000000000000000000000000000000000000000000 00     eed78eb95f0716e8bede6d0754a169b7
05001206000150SP02002018090521UNI0000102745302001          TRANSPORTE DE ACESSO A INTERNET - 04 MB 0102      000000001000000000001000000000600000000000000000000000000000000600000000000000000000000000000000000000000N1809               000000001000000000000000000000000000000000000000000000000 00     73b537a2bf9cff7a1f30cac29080d5e2
21307655000187SP02002018090521UNI0000102755307001          TRANSPORTE DE ACESSO A INTERNET - 02 MB 0102      000000001000000000001000000000400000000000000000000000000000000400000000000000000000000000000000000000000N1809               000000001000000000000000000000000000000000000000000000000 00     07272b94314048531fa6bafed5b03097
48165518000101SP02002018090521UNI0000102765302001          TRANSPORTE DE ACESSO A INTERNET - 04 MB 0102      000000001000000000001000000000450000000000000000000000000000000450000000000000000000000000000000000000000N1809               000000001000000000000000000000000000000000000000000000000 00     0ef21c4e265ea760a45e37853cc8ca24
01154956000534SP02002018090521UNI0000102775303001          TRANSPORTE DE ACESSO A INTERNET - 02 MB 0102      000000001000000000001000000000450000000000000000000000000000000450000000000000000000000000000000000000000N1809               000000001000000000000000000000000000000000000000000000000 00     2a87bffedf16b249798d6af062ee10fa
01566128000180SP02002018090521UNI0000102785304001          TRANSPORTE DE ACESSO A INTERNET - 15 MB 0102      000000001000000000001000000002200000000000000000000000000000002200000000000000000000000000000000000000000N1809               000000001000000000000000000000000000000000000000000000000 00     e863d260c8e0d3d5f2cf0f213b27c53d
58757725000109SP02002018090521UNI0000102795302001          TRANSPORTE DE ACESSO A INTERNET - 02 MB 0102      000000001000000000001000000000490000000000000000000000000000000490000000000000000000000000000000000000000N1809               000000001000000000000000000000000000000000000000000000000 00     90a85229d0d3b01306800aeee1550a5d
48867139000163SP02002018090521UNI0000102805302001          TRANSPORTE DE ACESSO A INTERNET - 10 MB 0102      000000001000000000001000000001000000000000000000000000000000001000000000000000000000000000000000000000000N1809               000000001000000000000000000000000000000000000000000000000 00     1e41c5add23c556999e77a5da58a2152
03340533000100SP02002018090521UNI0000102815302001          TRANSPORTE DE ACESSO A INTERNET - 02 MB 0102      000000001000000000001000000000230000000000000000000000000000000230000000000000000000000000000000000000000N1809               000000001000000000000000000000000000000000000000000000000 00     b926685cfa2d5b139648d78011c7f37c
51128197000180SP02002018090521UNI0000102825302001          TRANSPORTE DE ACESSO A INTERNET - 08 MB 0102      000000001000000000001000000000930000000000000000000000000000000930000000000000000000000000000000000000000N1809               000000001000000000000000000000000000000000000000000000000 00     17c0f8457ae85a043b2d93a7ea140a16
50871961000140SP02002018090521UNI0000102835303001          TRANSPORTE DE ACESSO A INTERNET - 10 MB 0102      000000001000000000001000000000950000000000000000000000000000000950000000000000000000000000000000000000000N1809               000000001000000000000000000000000000000000000000000000000 00     bdb21c2dec1dab4b720440b8729a1154
27045622000273SP02002018090521UNI0000102845303001          TRANSPORTE DE ACESSO A INTERNET - 03 MB 0102      000000001000000000001000000000450000000000000000000000000000000450000000000000000000000000000000000000000N1809               000000001000000000000000000000000000000000000000000000000 00     5a56e568c637ac875d234bed913cbedd
07288647000452SP02002018090521UNI0000102855302001          TRANSPORTE DE ACESSO A INTERNET - 10 MB 0102      000000001000000000001000000000387100000000000000000000000000000387100000000000000000000000000000000000000N1809               000000001000000000000000000000000000000000000000000000000 00     a4c7f3c49e69586f570ca1e21142bcd1
07288647000452SP02002018090521UNI0000102855302002          TRANSPORTE DE ACESSO A INTERNET - 10 MB 0102      000000001000000000001000000000750000000000000000000000000000000750000000000000000000000000000000000000000N1809               000000001000000000000000000000000000000000000000000000000 00     160d95298e156db33e241bffd9edeafa
07288647000452SP02002018090521UNI0000102855302003          ATIVAÇÃO DO SERVIÇO                     0102      000000001000000000001000000000690000000000000000000000000000000690000000000000000000000000000000000000000N1809               000000001000000000000000000000000000000000000000000000000 00     dab5b0e6229b09ae8d804ec47e0d65af
09196978000145SP02002018090521UNI0000102865301001          TRANSPORTE DE ACESSO A INTERNET - 10 MB 0102      000000001000000000001000000001340000000000000000000000000000001340000000000000000000000000000000000000000N1809               000000001000000000000000000000000000000000000000000000000 00     86afd72b1c60a2d090a2767e3b0ea79a
57563694000192SP02002018090521UNI0000102875302001          TRANSPORTE DE ACESSO A INTERNET - 03 MB 0102      000000001000000000001000000000530000000000000000000000000000000530000000000000000000000000000000000000000N1809               000000001000000000000000000000000000000000000000000000000 00     a6af5f39049743ad6dca8194a6c90235
06073163000180SP02002018090521UNI0000102885302001          TRANSPORTE DE ACESSO A INTERNET - 03 MB 0102      000000001000000000001000000000350000000000000000000000000000000350000000000000000000000000000000000000000N1809               000000001000000000000000000000000000000000000000000000000 00     f4eb5e9da7e69a2edd763caee547e4af
20352600000126SP02002018090521UNI0000102895303001          TRANSPORTE DE ACESSO A INTERNET - 05 MB 0102      000000001000000000001000000000600000000000000000000000000000000600000000000000000000000000000000000000000N1809               000000001000000000000000000000000000000000000000000000000 00     42a338377075948a597a686940b49ef5
06262453001225SP02002018090521UNI0000102905303001          TRANSPORTE DE ACESSO A INTERNET - 08 MB 0102      000000001000000000001000000000900000000000000000000000000000000900000000000000000000000000000000000000000N1809               000000001000000000000000000000000000000000000000000000000 00     a4f0efeb2420182ede5fef23a278b3da
02083009000139SP02002018090521UNI0000102915303001          TRANSPORTE DE ACESSO A INTERNET - 15 MB 0102      000000001000000000001000000001400000000000000000000000000000001400000000000000000000000000000000000000000N1809               000000001000000000000000000000000000000000000000000000000 00     46dae6b63e80b5da46ed0cdf5608c5db
57508426000178SP02002018090521UNI0000102925303001          TRANSPORTE DE ACESSO A INTERNET - 04 MB 0102      000000001000000000001000000000700000000000000000000000000000000700000000000000000000000000000000000000000N1809               000000001000000000000000000000000000000000000000000000000 00     9ca990ccb3594ae7775b6ca350414ec6
57508426000178SP02002018090521UNI0000102935303001          TRANSPORTE DE ACESSO A INTERNET - 02 MB 0102      000000001000000000001000000000400000000000000000000000000000000400000000000000000000000000000000000000000N1809               000000001000000000000000000000000000000000000000000000000 00     326f7148dc0566cc7d78ecc222cb7c2c
81800849000141SC02002018090521UNI0000102945304001          TRANSPORTE DE ACESSO A INTERNET - 06 MB 0102      000000001000000000001000000000840000000000000000000000000000000840000000000000000000000000000000000000000N1809               000000001000000000000000000000000000000000000000000000000 00     7ef119ff2d3f8d8959c759fcc0f95bbd
06247303000190SP02002018090521UNI0000102955302001          TRANSPORTE DE ACESSO A INTERNET - 05 MB 0102      000000001000000000001000000000600000000000000000000000000000000600000000000000000000000000000000000000000N1809               000000001000000000000000000000000000000000000000000000000 00     4de5ecf0fe601c16e0504d8b7a3a278b
60813540000116SP02002018090521UNI0000102965302001          TRANSPORTE DE ACESSO A INTERNET - 05 MB 0102      000000001000000000001000000000700000000000000000000000000000000700000000000000000000000000000000000000000N1809               000000001000000000000000000000000000000000000000000000000 00     0fe9c1d9bdd1a7e5657ca839e3a78e8d
73196644000170SP02002018090521UNI0000102975302001          CONECTIVIDADE PONTO A PONTO VPN 05 MB   0102      000000001000000000001000000001500000000000000000000000000000001500000000000000000000000000000000000000000N1809               000000001000000000000000000000000000000000000000000000000 00     7072aa0744b6b14d8661b4437fa8ac0c
02554149000148PR02002018090521UNI0000102986304001          TRANSPORTE DE ACESSO A INTERNET - 20 MB 0102      000000001000000000001000000001300000000000000000000000000000001300000000000000000000000000000000000000000N1809               000000001000000000000000000000000000000000000000000000000 00     6075d84f26d7dc87fd95c0c68d07865e
02554149000148PR02002018090521UNI0000102996304001          TRANSPORTE DE ACESSO A INTERNET - 20 MB 0102      000000001000000000001000000001300000000000000000000000000000001300000000000000000000000000000000000000000N1809               000000001000000000000000000000000000000000000000000000000 00     3329debe1bb641bb0c78553aad525ba8
13317997000150SP02002018090521UNI0000103005307001          TRANSPORTE DE ACESSO A INTERNET - 10 MB 0102      000000001000000000001000000001000000000000000000000000000000001000000000000000000000000000000000000000000N1809               000000001000000000000000000000000000000000000000000000000 00     7d905c8a55e147c0ab8bdb1ec679cd55
48130744000157SP02002018090521UNI0000103015302001          TRANSPORTE DE ACESSO A INTERNET - 05 MB 0102      000000001000000000001000000000780000000000000000000000000000000780000000000000000000000000000000000000000N1809               000000001000000000000000000000000000000000000000000000000 00     766c3a32889d7802d198a3299084c7de
24552837000101SP02002018090521UNI0000103025302001          TRANSPORTE DE ACESSO A INTERNET - 10 MB 0102      000000001000000000001000000001300000000000000000000000000000001300000000000000000000000000000000000000000N1809               000000001000000000000000000000000000000000000000000000000 00     6dcd564f4a245ddd1ea981564de93c66
05951758000552SP02002018090521UNI0000103035303001          TRANSPORTE DE ACESSO A INTERNET - 10 MB 0102      000000001000000000001000000000990000000000000000000000000000000990000000000000000000000000000000000000000S1809               000000001000000000000000000000000000000000000000000000000 00     3398b65124154fa3907a8418c80bede8
05287789000127SP02002018090521UNI0000103045302001          TRANSPORTE DE ACESSO A INTERNET - 02 MB 0102      000000001000000000001000000000350000000000000000000000000000000350000000000000000000000000000000000000000N1809               000000001000000000000000000000000000000000000000000000000 00     364e6e64c40a7799ffd509c29367bce9
11573253000170SP02002018090521UNI0000103055302001          TRANSPORTE DE ACESSO A INTERNET - 07 MB 0102      000000001000000000001000000000660000000000000000000000000000000660000000000000000000000000000000000000000N1809               000000001000000000000000000000000000000000000000000000000 00     c6a7db37dc111a41c6ac4f7cd6e1d4a0
24882180000140SP02002018090521UNI0000103065303001          TRANSPORTE DE ACESSO A INTERNET - 02 MB 0102      000000001000000000001000000000260000000000000000000000000000000260000000000000000000000000000000000000000N1809               000000001000000000000000000000000000000000000000000000000 00     b8c4b57bdddee774f478c118de485b90
24882180000140SP02002018090521UNI0000103065303002          ATIVAÇÃO DO SERVIÇO 2 / 3               0102      000000001000000000001000000000100000000000000000000000000000000100000000000000000000000000000000000000000N1809               000000001000000000000000000000000000000000000000000000000 00     ac504f3fc51ed66905bd12e13d9e227b
23803196000158SP02002018090521UNI0000103075303001          TRANSPORTE DE ACESSO A INTERNET - 07 MB 0102      000000001000000000001000000000600000000000000000000000000000000600000000000000000000000000000000000000000N1809               000000001000000000000000000000000000000000000000000000000 00     5c7e8f63f5b91f8bee48df35d7502202
13216881000124SP02002018090521UNI0000103085304001          TRANSPORTE DE ACESSO A INTERNET - 08 MB 0102      000000001000000000001000000000900000000000000000000000000000000900000000000000000000000000000000000000000N1809               000000001000000000000000000000000000000000000000000000000 00     31fb0861093a4699d967479413f892b0
53174058000118SP02002018090521UNI0000103095307001          TRANSPORTE DE ACESSO A INTERNET - 04 MB 0102      000000001000000000001000000000850000000000000000000000000000000850000000000000000000000000000000000000000N1809               000000001000000000000000000000000000000000000000000000000 00     517ead3c018e3c2d1f7d46f6bd45ad92
04330905000180SP02002018090521UNI0000103105303001          TRANSPORTE DE ACESSO A INTERNET - 30 MB 0102      000000001000000000001000000002340000000000000000000000000000002340000000000000000000000000000000000000000N1809               000000001000000000000000000000000000000000000000000000000 00     4e6f5ef331bd379c08742d04f7a9243a
60609088000175SP02002018090521UNI0000103115302001          TRANSPORTE DE ACESSO A INTERNET - 10 MB 0102      000000001000000000001000000001290000000000000000000000000000001290000000000000000000000000000000000000000N1809               000000001000000000000000000000000000000000000000000000000 00     ba5ac2d9b619cd6fed92a2fc682d616d
06215714000101SP02002018090521UNI0000103125302001          TRANSPORTE DE ACESSO A INTERNET - 03 MB 0102      000000001000000000001000000000590000000000000000000000000000000590000000000000000000000000000000000000000N1809               000000001000000000000000000000000000000000000000000000000 00     04a46832f989b6c8311aca747024252b
57506115000170SP02002018090521UNI0000103135302001          TRANSPORTE DE ACESSO A INTERNET - 10 MB 0102      000000001000000000001000000001130000000000000000000000000000001130000000000000000000000000000000000000000N1809               000000001000000000000000000000000000000000000000000000000 00     e6e4764f41a8d15dd9399270430e5450
12201581000109MS02002018090521UNI0000103146301001          TRANSPORTE DE ACESSO A INTERNET - 20 MB 0102      000000001000000000001000000002700000000000000000000000000000002700000000000000000000000000000000000000000N1809               000000001000000000000000000000000000000000000000000000000 00     0aa602d85ae5b4f295f2efe7aa25093a
29230700000154SP02002018090521UNI0000103155307001          TRANSPORTE DE ACESSO A INTERNET - 10 MB 0102      000000001000000000001000000000950000000000000000000000000000000950000000000000000000000000000000000000000N1809               000000001000000000000000000000000000000000000000000000000 00     75762897609b794031f604521ea56715
60645819000138SP02002018090521UNI0000103165302001          TRANSPORTE DE ACESSO A INTERNET - 10 MB 0102      000000001000000000001000000000800000000000000000000000000000000800000000000000000000000000000000000000000N1809               000000001000000000000000000000000000000000000000000000000 00     bf2e74c53b2dfaaf45aacbc2b9581f4a
44197044000129SP02002018090521UNI0000103175303001          TRANSPORTE DE ACESSO A INTERNET - 10 MB 0102      000000001000000000001000000001450000000000000000000000000000001450000000000000000000000000000000000000000N1809               000000001000000000000000000000000000000000000000000000000 00     26682401b44dd0567ff960d08a1694bb
04962229000168SP02002018090521UNI0000103185301001          TRANSPORTE DE ACESSO A INTERNET - 10 MB 0102      000000001000000000001000000000800000000000000000000000000000000800000000000000000000000000000000000000000N1809               000000001000000000000000000000000000000000000000000000000 00     9be5923dd8cf827c73d40d01bf038e63
17909413000196SP02002018090521UNI0000103195304001          TRANSPORTE DE ACESSO A INTERNET - 10 MB 0102      000000001000000000001000000000790000000000000000000000000000000790000000000000000000000000000000000000000N1809               000000001000000000000000000000000000000000000000000000000 00     73c2cdab816789854e8b8a74b888ae9a
57291247000121SP02002018090521UNI0000103205302001          TRANSPORTE DE ACESSO A INTERNET - 05 MB 0102      000000001000000000001000000000990000000000000000000000000000000990000000000000000000000000000000000000000N1809               000000001000000000000000000000000000000000000000000000000 00     52b708998d197835733aa1850e53870c
49293194000150SP02002018090521UNI0000103215302001          TRANSPORTE DE ACESSO A INTERNET - 04 MB 0102      000000001000000000001000000000540000000000000000000000000000000540000000000000000000000000000000000000000N1809               000000001000000000000000000000000000000000000000000000000 00     c29bb03c4de38b6047c488410981f88b
51135705000157SP02002018090521UNI0000103225302001          02 LINKS BACKUP DE 03 MB DE VELOCIDADE  0102      000000001000000000001000000000560000000000000000000000000000000560000000000000000000000000000000000000000N1809               000000001000000000000000000000000000000000000000000000000 00     8124d74f5728568d787d165ecd058579
62546098000134SP02002018090521UNI0000103235302001          TRANSPORTE DE ACESSO A INTERNET - 04 MB 0102      000000001000000000001000000000650000000000000000000000000000000650000000000000000000000000000000000000000N1809               000000001000000000000000000000000000000000000000000000000 00     3767e1a1225c8d6b1506f595aa052d40
02881877000164SP02002018090521UNI0000103245302001          TRANSPORTE DE ACESSO A INTERNET - 04 MB 0102      000000001000000000001000000000590000000000000000000000000000000590000000000000000000000000000000000000000N1809               000000001000000000000000000000000000000000000000000000000 00     9df8e0973899b5f69c8f37d88b2865d9
23890448000204SP02002018090521UNI0000103255303001          TRANSPORTE DE ACESSO A INTERNET - 03 MB 0102      000000001000000000001000000000495000000000000000000000000000000495000000000000000000000000000000000000000N1809               000000001000000000000000000000000000000000000000000000000 00     7f44cd46687e6ddd5dc8ce823b353f3f
60272747000120SP02002018090521UNI0000103265303001          TRANSPORTE DE ACESSO A INTERNET - 15 MB 0102      000000001000000000001000000001500000000000000000000000000000001500000000000000000000000000000000000000000N1809               000000001000000000000000000000000000000000000000000000000 00     a8ef3597c8bde9953eaa8b74b758366c
09447411000102SP02002018090521UNI0000103275302001          TRANSPORTE DE ACESSO A INTERNET - 05 MB 0102      000000001000000000001000000000650000000000000000000000000000000650000000000000000000000000000000000000000N1809               000000001000000000000000000000000000000000000000000000000 00     aa5ca38aa0b6398fe1dfdc458d42b1ec
01820028000138SP02002018090521UNI0000103285302001          TRANSPORTE DE ACESSO A INTERNET - 30 MB 0102      000000001000000000001000000001300000000000000000000000000000001300000000000000000000000000000000000000000N1809               000000001000000000000000000000000000000000000000000000000 00     4c978f264cf039469e1d715b4d6937a5
04118654000175SP02002018090521UNI0000103295302001          TRANSPORTE DE ACESSO A INTERNET - 10 MB 0102      000000001000000000001000000000960000000000000000000000000000000960000000000000000000000000000000000000000N1809               000000001000000000000000000000000000000000000000000000000 00     3e048df80e19fe324a0e5f7a08a99892
59400853000759SP02002018090521UNI0000103305302001          TRANSPORTE DE ACESSO A INTERNET - 10 MB 0102      000000001000000000001000000001250000000000000000000000000000001250000000000000000000000000000000000000000N1809               000000001000000000000000000000000000000000000000000000000 00     a706a088696b28236de039675de6c788
57486326000198SP02002018090521UNI0000103315302001          TRANSPORTE DE ACESSO A INTERNET - 01 MB 0102      000000001000000000001000000000310000000000000000000000000000000310000000000000000000000000000000000000000N1809               000000001000000000000000000000000000000000000000000000000 00     247a1ccbba19a2db8bfc59b47e182de9
00389481000179BA02002018090521UNI0000103326304001          TRANSPORTE DE ACESSO A INTERNET - 05 MB 0102      000000001000000000001000000001050000000000000000000000000000001050000000000000000000000000000000000000000N1809               000000001000000000000000000000000000000000000000000000000 00     3a3d0582655f2baaa8dd9304f9fceae5
02376381000133SP02002018090521UNI0000103335304001          TRANSPORTE DE ACESSO A INTERNET - 15 MB 0102      000000001000000000001000000001000000000000000000000000000000001000000000000000000000000000000000000000000N1809               000000001000000000000000000000000000000000000000000000000 00     28498976bf5064d041643ab11acaedf6
20505576000118SP02002018090521UNI0000103345303001          TRANSPORTE DE ACESSO A INTERNET - 10 MB 0102      000000001000000000001000000000750000000000000000000000000000000750000000000000000000000000000000000000000N1809               000000001000000000000000000000000000000000000000000000000 00     5e7720ecc8b25b7fc5e3ab74524fc6e0
69092492000199SP02002018090521UNI0000103355303001          TRANSPORTE DE ACESSO A INTERNET - 06 MB 0102      000000001000000000001000000001150000000000000000000000000000001150000000000000000000000000000000000000000N1809               000000001000000000000000000000000000000000000000000000000 00     8a69b400b62376c7418dd893dc6e4631
68901370000133SP02002018090521UNI0000103365302001          TRANSPORTE DE ACESSO A INTERNET - 10 MB 0102      000000001000000000001000000000850000000000000000000000000000000850000000000000000000000000000000000000000N1809               000000001000000000000000000000000000000000000000000000000 00     9b467e71ee89f9a9d0c161e6a936e5dd
01625744000164SP02002018090521UNI0000103375302001          TRANSPORTE DE ACESSO A INTERNET - 10 MB 0102      000000001000000000001000000001150000000000000000000000000000001150000000000000000000000000000000000000000N1809               000000001000000000000000000000000000000000000000000000000 00     20d5675dd2d5438a66b8c99fe04aa9ab
21360772000295SP02002018090521UNI0000103385303001          TRANSPORTE DE ACESSO A INTERNET - 05 MB 0102      000000001000000000001000000000590000000000000000000000000000000590000000000000000000000000000000000000000N1809               000000001000000000000000000000000000000000000000000000000 00     65d2794bc08e0afc0728e80cc68f8a03
04113141000333SP02002018090521UNI0000103395302001          TRANSPORTE DE ACESSO A INTERNET - 08 MB 0102      000000001000000000001000000000990000000000000000000000000000000990000000000000000000000000000000000000000N1809               000000001000000000000000000000000000000000000000000000000 00     62b67977b1b8e2860e82dc4600a35757
21539562000188SP02002018090521UNI0000103405303001          TRANSPORTE DE ACESSO A INTERNET - 02 MB 0102      000000001000000000001000000000450000000000000000000000000000000450000000000000000000000000000000000000000N1809               000000001000000000000000000000000000000000000000000000000 00     c1faa657a68b3f521bbf307ceb9a1903
15080217000126SP02002018090521UNI0000103415302001          TRANSPORTE DE ACESSO A INTERNET - 10 MB 0102      000000001000000000001000000000550000000000000000000000000000000550000000000000000000000000000000000000000N1809               000000001000000000000000000000000000000000000000000000000 00     868697f7aac1f0436d668f6d2362e53c
11573449000165SP02002018090521UNI0000103425307001          TRANSPORTE DE ACESSO A INTERNET - 15 MB 0102      000000001000000000001000000001200000000000000000000000000000001200000000000000000000000000000000000000000N1809               000000001000000000000000000000000000000000000000000000000 00     be2e9ea9de066e71d6d867cf46bbde2c
49533078000160SP02002018090521UNI0000103435302001          TRANSPORTE DE ACESSO A INTERNET - 12 MB 0102      000000001000000000001000000001260000000000000000000000000000001260000000000000000000000000000000000000000N1809               000000001000000000000000000000000000000000000000000000000 00     371941d4e6aa80b1620bed409cfa945c
02282844000106SP02002018090521UNI0000103445307001          CONECTIVIDADE PONTO A PONTO - VPN 01 MB 0102      000000001000000000001000000000300000000000000000000000000000000300000000000000000000000000000000000000000N1809               000000001000000000000000000000000000000000000000000000000 00     92f7903a0371057d41b0670ee4f28c5c
02282844000106SP02002018090521UNI0000103445307002          CONECTIVIDADE PONTO A PONTO - VPN 05 MB 0102      000000001000000000001000000001200000000000000000000000000000001200000000000000000000000000000000000000000N1809               000000001000000000000000000000000000000000000000000000000 00     853832cfb77a428fe573396ae71bb980
03183544000124SP02002018090521UNI0000103455303001          TRANSPORTE DE ACESSO A INTERNET - 10 MB 0102      000000001000000000001000000000990000000000000000000000000000000990000000000000000000000000000000000000000N1809               000000001000000000000000000000000000000000000000000000000 00     ebe2cb869065db04f819407727dcfb36
01553804000180SP02002018090521UNI0000103465302001          TRANSPORTE DE ACESSO A INTERNET - 10 MB 0102      000000001000000000001000000000990000000000000000000000000000000990000000000000000000000000000000000000000N1809               000000001000000000000000000000000000000000000000000000000 00     9c8528c72927f49deab9c4880031fe6f
05064859000188SP02002018090521UNI0000103475302001          TRANSPORTE DE ACESSO A INTERNET - 05 MB 0102      000000001000000000001000000000600000000000000000000000000000000600000000000000000000000000000000000000000N1809               000000001000000000000000000000000000000000000000000000000 00     4c2d0ea4489309d1e8e56e21ac1c3be1
04845049000104SP02002018090521UNI0000103485307001          TRANSPORTE DE ACESSO A INTERNET - 10 MB 0102      000000001000000000001000000000900000000000000000000000000000000900000000000000000000000000000000000000000N1809               000000001000000000000000000000000000000000000000000000000 00     13150a5343a6e6665ce0e1573944705c
74444241000166SP02002018090521UNI0000103495303001          TRANSPORTE DE ACESSO A INTERNET - 04 MB 0102      000000001000000000001000000000950000000000000000000000000000000950000000000000000000000000000000000000000N1809               000000001000000000000000000000000000000000000000000000000 00     4a0fdaae157def7886aafc76ffdbd600
05982409000174SP02002018090521UNI0000103505302001          TRANSPORTE DE ACESSO A INTERNET - 01 MB 0102      000000001000000000001000000000230000000000000000000000000000000230000000000000000000000000000000000000000N1809               000000001000000000000000000000000000000000000000000000000 00     89402fed01a42d892e720b8ee6952944
03391789000147SP02002018090521UNI0000103515302001          TRANSPORTE DE ACESSO A INTERNET - 02 MB 0102      000000001000000000001000000000380000000000000000000000000000000380000000000000000000000000000000000000000N1809               000000001000000000000000000000000000000000000000000000000 00     fd845e17c684086aae1ae67d2aeee918
23826885000188SP02002018090521UNI0000103525303001          TRANSPORTE DE ACESSO A INTERNET - 05 MB 0102      000000001000000000001000000000590000000000000000000000000000000590000000000000000000000000000000000000000N1809               000000001000000000000000000000000000000000000000000000000 00     aba24d088da9d985c32e544ab64189ae
43032358000109SP02002018090521UNI0000103535302001          TRANSPORTE DE ACESSO A INTERNET - 10 MB 0102      000000001000000000001000000000870000000000000000000000000000000870000000000000000000000000000000000000000N1809               000000001000000000000000000000000000000000000000000000000 00     e96e113dfa338a55cd4503b28173c558
63081764000179SP02002018090521UNI0000103545302001          TRANSPORTE DE ACESSO A INTERNET - 05 MB 0102      000000001000000000001000000001100000000000000000000000000000001100000000000000000000000000000000000000000N1809               000000001000000000000000000000000000000000000000000000000 00     c642c7c2efb31b1c426c09c8dea8c526
00591780000191SP02002018090521UNI0000103555304001          TRANSPORTE DE ACESSO A INTERNET - 10 MB 0102      000000001000000000001000000001100000000000000000000000000000001100000000000000000000000000000000000000000N1809               000000001000000000000000000000000000000000000000000000000 00     be653b1b765405a0d395f1eeb505ab0f
53585766000575SP02002018090521UNI0000103565302001          TRANSPORTE DE ACESSO A INTERNET - 15 MB 0102      000000001000000000001000000001600000000000000000000000000000001600000000000000000000000000000000000000000N1809               000000001000000000000000000000000000000000000000000000000 00     889177a822574cec0c5d5347d3c3db6a
07801105000199SP02002018090521UNI0000103575303001          TRANSPORTE DE ACESSO A INTERNET - 10 MB 0102      000000001000000000001000000001750000000000000000000000000000001750000000000000000000000000000000000000000N1809               000000001000000000000000000000000000000000000000000000000 00     9076f9c8176bd5a7d842b64ca7a2e950
09196978000145SP02002018090521UNI0000103585301001          TRANSPORTE DE ACESSO A INTERNET - 05 MB 0102      000000001000000000001000000000800000000000000000000000000000000800000000000000000000000000000000000000000N1809               000000001000000000000000000000000000000000000000000000000 00     9a34124fba94cd214299e4e87957481d
28583150000194SP02002018090521UNI0000103595303001          TRANSPORTE DE ACESSO A INTERNET - 06 MB 0102      000000001000000000001000000000600000000000000000000000000000000600000000000000000000000000000000000000000N1809               000000001000000000000000000000000000000000000000000000000 00     c00ee004763e4030b834d16eaf6506d5
61192308000170SP02002018090521UNI0000103605303001          TRANSPORTE DE ACESSO A INTERNET - 10 MB 0102      000000001000000000001000000001200000000000000000000000000000001200000000000000000000000000000000000000000N1809               000000001000000000000000000000000000000000000000000000000 00     4412fd2cfee3e528ac0c5edbcafc3e23
04831417000157SP02002018090521UNI0000103615303001          TRANSPORTE DE ACESSO A INTERNET - 05 MB 0102      000000001000000000001000000000600000000000000000000000000000000600000000000000000000000000000000000000000N1809               000000001000000000000000000000000000000000000000000000000 00     a1ea8da0e87be02bb0b1fc179b1daa69
11383233000137SP02002018090521UNI0000103625303001          TRANSPORTE DE ACESSO A INTERNET - 01 MB 0102      000000001000000000001000000000230000000000000000000000000000000230000000000000000000000000000000000000000N1809               000000001000000000000000000000000000000000000000000000000 00     83babe0ef166490c7c33d8c2e54fae10
04290926000110SP02002018090521UNI0000103635302001          TRANSPORTE DE ACESSO A INTERNET - 05 MB 0102      000000001000000000001000000000750000000000000000000000000000000750000000000000000000000000000000000000000N1809               000000001000000000000000000000000000000000000000000000000 00     ec9ee6b74776f359766f02de1bcca78c
08200314000140SP02002018090521UNI0000103645303001          TRANSPORTE DE ACESSO A INTERNET - 03 MB 0102      000000001000000000001000000000550000000000000000000000000000000550000000000000000000000000000000000000000N1809               000000001000000000000000000000000000000000000000000000000 00     95fca3ab861a26e68d37514a84e49a26
07062708000116PR02002018090521UNI0000103656303001          TRANSPORTE DE ACESSO A INTERNET - 06 MB 0102      000000001000000000001000000000750000000000000000000000000000000750000000000000000000000000000000000000000N1809               000000001000000000000000000000000000000000000000000000000 00     212081427f6c966ccb59142f650f443b
07062708000116PR02002018090521UNI0000103656303002          01 ENDEREÇO IP ADICIONAL                0102      000000001000000000001000000000070000000000000000000000000000000070000000000000000000000000000000000000000N1809               000000001000000000000000000000000000000000000000000000000 00     ecf59a9ed5628ec11b78b918ff4413b2
57484222000144SP02002018090521UNI0000103665302001          TRANSPORTE DE ACESSO A INTERNET - 04 MB 0102      000000001000000000001000000000290000000000000000000000000000000290000000000000000000000000000000000000000N1809               000000001000000000000000000000000000000000000000000000000 00     be256c45b4f243fb52cf27963a7af064
09344589000110SP02002018090521UNI0000103675307001          TRANSPORTE DE ACESSO A INTERNET - 05 MB 0102      000000001000000000001000000000670000000000000000000000000000000670000000000000000000000000000000000000000N1809               000000001000000000000000000000000000000000000000000000000 00     eccb6fe0688970ab3ec1f84def2b6028
44211340000137SP02002018090521UNI0000103685302001          TRANSPORTE DE ACESSO A INTERNET - 10 MB 0102      000000001000000000001000000001100000000000000000000000000000001100000000000000000000000000000000000000000N1809               000000001000000000000000000000000000000000000000000000000 00     cc7d5dd7aead0aa3d137ccc212841c76
29067113016009SP02002018090521UNI0000103695303001          TRANSPORTE DE ACESSO A INTERNET - 04 MB 0102      000000001000000000001000000001050000000000000000000000000000001050000000000000000000000000000000000000000N1809               000000001000000000000000000000000000000000000000000000000 00     1019ffc0766ef51cf24c55e25d97e98a
17882286000189SP02002018090521UNI0000103705302001          TRANSPORTE DE ACESSO A INTERNET - 04 MB 0102      000000001000000000001000000000990000000000000000000000000000000990000000000000000000000000000000000000000N1809               000000001000000000000000000000000000000000000000000000000 00     446e56e4145398f547cb3ba22bd34e3b
47290002000126SP02002018090521UNI0000103715303001          TRANSPORTE DE ACESSO A INTERNET - 10 MB 0102      000000001000000000001000000000700000000000000000000000000000000700000000000000000000000000000000000000000N1809               000000001000000000000000000000000000000000000000000000000 00     60a851b87f137573837e4d5d32cb506b
05134486000174SP02002018090521UNI0000103725302001          TRANSPORTE DE ACESSO A INTERNET - 05 MB 0102      000000001000000000001000000000850000000000000000000000000000000850000000000000000000000000000000000000000N1809               000000001000000000000000000000000000000000000000000000000 00     68af2f59333fb7484cb5ae94b496ae21
54474853000194SP02002018090521UNI0000103735302001          TRANSPORTE DE ACESSO A INTERNET - 01 MB 0102      000000001000000000001000000000300000000000000000000000000000000300000000000000000000000000000000000000000N1809               000000001000000000000000000000000000000000000000000000000 00     06bb304ba3a5a6743c7ecf51feb44fdc
57550980000113SP02002018090521UNI0000103745302001          TRANSPORTE DE ACESSO A INTERNET - 12 MB 0102      000000001000000000001000000001000000000000000000000000000000001000000000000000000000000000000000000000000N1809               000000001000000000000000000000000000000000000000000000000 00     18cf57cd45443dae47f8862dd63fa5e3
62227509000129SP02002018090521UNI0000103755303001          TRANSPORTE DE ACESSO A INTERNET - 10 MB 0102      000000001000000000001000000001000000000000000000000000000000001000000000000000000000000000000000000000000N1809               000000001000000000000000000000000000000000000000000000000 00     c3bef6e46191edc7aa013163864cfc59
63106249000104SP02002018090521UNI0000103765302001          TRANSPORTE DE ACESSO A INTERNET - 30 MB 0102      000000001000000000001000000002400000000000000000000000000000002400000000000000000000000000000000000000000N1809               000000001000000000000000000000000000000000000000000000000 00     5cab453c6d86aeb59967968d19d49942
14813983000190SP02002018090521UNI0000103775303001          TRANSPORTE DE ACESSO A INTERNET - 06 MB 0102      000000001000000000001000000000750000000000000000000000000000000750000000000000000000000000000000000000000N1809               000000001000000000000000000000000000000000000000000000000 00     9e492082428daec85a377a5e8c4536f3
04331943000158SP02002018090521UNI0000103785303001          TRANSPORTE DE ACESSO A INTERNET - 02 MB 0102      000000001000000000001000000000300000000000000000000000000000000300000000000000000000000000000000000000000N1809               000000001000000000000000000000000000000000000000000000000 00     087a2d05271bfa10e71039e0a7dc44fb
04331943000158SP02002018090521UNI0000103795303001          TRANSPORTE DE ACESSO A INTERNET - 02 MB 0102      000000001000000000001000000000300000000000000000000000000000000300000000000000000000000000000000000000000N1809               000000001000000000000000000000000000000000000000000000000 00     e71d081a5137ff7f3b1b29a17b67600c
60872306004076SP02002018090521UNI0000103805302001          CONECTIVIDADE PONTO A PONTO - VPN 20 MB 0102      000000001000000000001000000004000000000000000000000000000000004000000000000000000000000000000000000000000N1809               000000001000000000000000000000000000000000000000000000000 00     6ac8d6472da1a798f10bfdcc41b79ae4
10303813000104SP02002018090521UNI0000103815303001          TRANSPORTE DE ACESSO A INTERNET - 04 MB 0102      000000001000000000001000000000850000000000000000000000000000000850000000000000000000000000000000000000000N1809               000000001000000000000000000000000000000000000000000000000 00     9fa85c896b45dd5cb7ffca8e19f2c7a7
10219044000160SP02002018090521UNI0000103825303001          TRANSPORTE DE ACESSO A INTERNET - 05 MB 0102      000000001000000000001000000000590000000000000000000000000000000590000000000000000000000000000000000000000N1809               000000001000000000000000000000000000000000000000000000000 00     c889c7a4772cf7c530b96b72fdfe20a0
53191151000130SP02002018090521UNI0000103835302001          TRANSPORTE DE ACESSO A INTERNET - 02 MB 0102      000000001000000000001000000000280000000000000000000000000000000280000000000000000000000000000000000000000N1809               000000001000000000000000000000000000000000000000000000000 00     ad371b3283a3f7b926911d4f645abd6c
10912157000147SP02002018090521UNI0000103845307001          TRANSPORTE DE ACESSO A INTERNET - 15 MB 0102      000000001000000000001000000001300000000000000000000000000000001300000000000000000000000000000000000000000N1809               000000001000000000000000000000000000000000000000000000000 00     362400b7f248ab7fce5614141b28040d
03627873000117SP02002018090521UNI0000103855307001          02 TRANSP INTERNET DE 01 MB DOWNLOAD 04 0102      000000001000000000001000000000700000000000000000000000000000000700000000000000000000000000000000000000000N1809               000000001000000000000000000000000000000000000000000000000 00     3aa6efd2b4d00e7e01753977c271289c
14397118000100SP02002018090521UNI0000103865302001          TRANSPORTE DE ACESSO A INTERNET - 05 MB 0102      000000001000000000001000000000580000000000000000000000000000000580000000000000000000000000000000000000000N1809               000000001000000000000000000000000000000000000000000000000 00     b27ecbb64efb178ee7072b753d34432e
05259698000188SP02002018090521UNI0000103875307001          TRANSPORTE DE ACESSO A INTERNET - 20 MB 0102      000000001000000000001000000002350000000000000000000000000000002350000000000000000000000000000000000000000N1809               000000001000000000000000000000000000000000000000000000000 00     723876940b6ff1bf580493d0866bbe03
03077452001646SP02002018090521UNI0000103885304001          TRANSPORTE DE ACESSO A INTERNET - 20 MB 0102      000000001000000000001000000002700000000000000000000000000000002700000000000000000000000000000000000000000N1809               000000001000000000000000000000000000000000000000000000000 00     e6a01add5a9b8076ae402e5bb6d858d7
61471264000118SP02002018090521UNI0000103895302001          TRANSPORTE DE ACESSO A INTERNET - 01 MB 0102      000000001000000000001000000000180000000000000000000000000000000180000000000000000000000000000000000000000N1809               000000001000000000000000000000000000000000000000000000000 00     482fbefc63b4c618fe960ac1cf272f3a
09262608000320SP02002018090521UNI0000103905307001          TRANSPORTE DE ACESSO A INTERNET - 08 MB 0102      000000001000000000001000000003680000000000000000000000000000003680000000000000000000000000000000000000000N1809               000000001000000000000000000000000000000000000000000000000 00     daa3dcddd681de560aabbb5d4b392926
16462473000140SP02002018090521UNI0000103915302001          TRANSPORTE DE ACESSO A INTERNET - 04 MB 0102      000000001000000000001000000000560000000000000000000000000000000560000000000000000000000000000000000000000N1809               000000001000000000000000000000000000000000000000000000000 00     8987259ee46f62b41935d213d59557e3
04951466000123SP02002018090521UNI0000103925302001          TRANSPORTE DE ACESSO A INTERNET - 10 MB 0102      000000001000000000001000000000750000000000000000000000000000000750000000000000000000000000000000000000000N1809               000000001000000000000000000000000000000000000000000000000 00     0f874e728b803c2b7613c81f70bad690
01477885000691SP02002018090521UNI0000103935302001          TRANSPORTE DE ACESSO A INTERNET - 05 MB 0102      000000001000000000001000000001000000000000000000000000000000001000000000000000000000000000000000000000000N1809               000000001000000000000000000000000000000000000000000000000 00     052cba6379347f46dc996364d886105f
57559387000138SP02002018090521UNI0000103945303001          TRANSPORTE DE ACESSO A INTERNET - 02 MB 0102      000000001000000000001000000000560000000000000000000000000000000560000000000000000000000000000000000000000N1809               000000001000000000000000000000000000000000000000000000000 00     13bfeb3df4c207841138a862166eb008
30360029000145SP02002018090521UNI0000103955302001          TRANSPORTE DE ACESSO A INTERNET - 04 MB 0102      000000001000000000001000000000400000000000000000000000000000000400000000000000000000000000000000000000000N1809               000000001000000000000000000000000000000000000000000000000 00     c780164c13e2bb2a56df694e4c49e1f2
07407057000159SP02002018090521UNI0000103965302001          TRANSPORTE DE ACESSO A INTERNET - 03 MB 0102      000000001000000000001000000000490000000000000000000000000000000490000000000000000000000000000000000000000N1809               000000001000000000000000000000000000000000000000000000000 00     620cb23041622a3d4b0625cd88343d69
05951758000552SP02002018091221UNI0000103975303001          TRANSPORTE DE ACESSO A INTERNET - 10 MB 0102      000000001000000000001000000000990000000000000000000000000000000990000000000000000000000000000000000000000N1809               000000001000000000000000000000000000000000000000000000000 00     191e189df12496d90ea795b09f9284ee
