04171733000140442199652115  2AJ EQUIPAMENTOS DE SEG. IND. E SERSP020031058       2018090521UNI0000102641ccc64c057cc4b2ad7cc56645405b67d000000040000000000040000000000000000000000000000000000000000N1809000000001            10200            03031402000141                    0000000400000000000000000000                                                  00000000                                   f7735efecd39649871f117b8e8d372b9
55637920000107442047426118  Acd Chapas - Ind. e Com. Artefatos SP020030772       2018090521UNI000010265daf66903d55732a246925966a172ce42000000033500000000033500000000000000000000000000000000000000N1809000000002            10200            03031402000141                    0000000335000000000000000000                                                  00000000                                   8e76294517a380c35720dfae6f663c87
66749011000187442054450118  ACIBENOX EQUIPAMENTOS INDUSTRIAIS LSP020030773       2018090521UNI0000102662e76694789e396b8fabe52189d548ff3000000035000000000035000000000000000000000000000000000000000N1809000000003            10200            03031402000141                    0000000350000000000000000000                                                  00000000                                   d419fe5f09eb0f9fb48d25c84d4126fe
02314269000178115310819118  ADEGA ALENTEJANA COM. IMP. E EXP. LSP020031013       2018090521UNI000010267e3af7ccb81bd3fc9963ed4c820e7eaaf000000085000000000085000000000000000000000000000000000000000N1809000000004            10100            03031402000141                    0000000850000000000000000000                                                  00000000                                   12c5fcd03dac0df45a90eecfa205eb8c
03805416000507442335885118  PACK BLEND INDÚSTRI E COMÉRCIO DE LSP020030905       2018090521UNI0000102683225e1cf0d6d483e11cf3dfc1ec8ad58000000060000000000060000000000000000000000000000000000000000N1809000000005            10200            03031402000141                    0000000600000000000000000000                                                  00000000                                   d10a288a14f18043adb47b6a9230118f
44191880000104626079036113  Transportadora AJOFER Ltda         SP020030775       2018090521UNI000010269fde77fdebbeea556a0b6c7480da560c5000000190000000000190000000000000000000000000000000000000000N1809000000006            19900            03031402000141                    0000001900000000000000000000                                                  00000000                                   5ff15f4b49665bbcd1d40bb41dee382f
03805237000138119007776116  ALUMPLAST COMÉRCIO DE PLÁSTICOS E MSP020031093       2018090521UNI000010270eb749baf56057332744ae15aa9ecd733000000059000000000059000000000000000000000000000000000000000N1809000000007            10100            03031402000141                    0000000590000000000000000000                                                  00000000                                   1047afcecff885fac3887c849a762e64
13480775000153647704000115  ALVES & YOSHIY COMERCIAL E DISTRIBUSP020031012       2018090521UNI000010271556fc4437008638940478334d52f7e3b000000129000000000129000000000000000000000000000000000000000N1809000000008            10200            03031402000141                    0000001290000000000000000000                                                  00000000                                   dd69e7059832227e6ab88d1f98712de0
62007810000127581088307113  Metalurgica Andromeda Ltda         SP020030948       2018090521UNI000010272abb656f852c06a587f2d1c08d22ca016000000094000000000094000000000000000000000000000000000000000N1809000000009            10200            03031402000141                    0000000940000000000000000000                                                  00000000                                   43c2c9f06ce94105b13bc557bd7900aa
02600247000174ISENTO        INSTITUTO ARGONAUTA P/ CONSERV. COSSP020031001       2018090521UNI000010273a0d3a8ff8d7767329262c2c6e9f0ae73000000072000000000072000000000000000000000000000000000000000N1809000000011            19900            03031402000141                    0000000720000000000000000000                                                  00000000                                   7102aac82d376a54cf6d284eadfe03c8
05001206000150116945631119  ATTOW AUTOMOTIVE INDUSTRIA E COMERCSP020031076       2018090521UNI000010274f59d19294b1d4a5ffe0b8f395d09222d000000060000000000060000000000000000000000000000000000000000N1809000000012            10200            03031402000141                    0000000600000000000000000000                                                  00000000                                   a0800f08d8c4ca5cf877dfeaf851804e
21307655000187ISENTO        BARÃO E FERREIRA ADM. DE IMÓVEIS LTSP020031062       2018090521UNI000010275c7db1b57236773b68ef3b007b61fae5e000000040000000000040000000000000000000000000000000000000000N1809000000013            19900            03031402000141                    0000000400000000000000000000                                                  00000000                                   d1b3f1b92e20f3385a141653abb62baa
48165518000101110569209118  BEGEL Indústria e Comércio de RefriSP020031042       2018090521UNI00001027675b71de4407f28119e41d27b4e24f942000000045000000000045000000000000000000000000000000000000000N1809000000014            10200            03031402000141                    0000000450000000000000000000                                                  00000000                                   4994282d67862db767f953fc02a1b0de
01154956000534442132567114  BELA TINTAS LTDA                   SP020030971       2018090521UNI000010277680b990e09bd7c3d53c7f553680bbc7a000000045000000000045000000000000000000000000000000000000000N1809000000015            10100            03031402000141                    0000000450000000000000000000                                                  00000000                                   301c7fffe33ee0b563b1dcd62da03090
01566128000180149745464119  BLUE ANGELS SEG. PRIVADA E TRANSP. SP020030998       2018090521UNI00001027854fcdeb9fe862855418ff8262e9cf2fe000000220000000000220000000000000000000000000000000000000000N1809000000016            19900            03031402000141                    0000002200000000000000000000                                                  00000000                                   a65df173306cd1ff97882484a794fdbe
58757725000109442222120110  Boa Hora Central de Tratamento de RSP020030778       2018090521UNI000010279ea123d3c3d61f292571dfa48bc073f29000000049000000000049000000000000000000000000000000000000000N1809000000017            10200            03031402000141                    0000000490000000000000000000                                                  00000000                                   5a445227043b200a518b69921077c10c
48867139000163442023660115  BRANIVA INDUSTRIA MECÂNICA LTDA    SP020031060       2018090521UNI0000102808a5e0fef6034605e05cdac66bdb9ecd4000000100000000000100000000000000000000000000000000000000000N1809000000018            10200            03031402000141                    0000001000000000000000000000                                                  00000000                                   d79233b0d60def7ebf1cef1513da6806
03340533000100581134381114  Caldefiber Indústria e Comércio LtdSP020030781       2018090521UNI000010281a00e05abb797342e4059a201bb38adf4000000023000000000023000000000000000000000000000000000000000N1809000000019            10200            03031402000141                    0000000230000000000000000000                                                  00000000                                   638aeadca1c4e6be41e1e0b5dd488871
51128197000180442051380117  CARBOGÁS LTDA                      SP020030782       2018090521UNI00001028261b6644ce34b225ee23750355d34acc1000000093000000000093000000000000000000000000000000000000000N1809000000020            10200            03031402000141                    0000000930000000000000000000                                                  00000000                                   ddede8eec2271d64c28cec4acfad6f58
50871961000140442034342110  Carretão Materiais para Construção SP020030784       2018090521UNI0000102835b1eb50da9a2db30972ed93d01f7e290000000095000000000095000000000000000000000000000000000000000N1809000000021            10100            03031402000141                    0000000950000000000000000000                                                  00000000                                   418be06534fb4673d57b9319b78d9703
27045622000273442384496114  LILIANE CRISTINA DOS SANTOS - ME   SP020031097       2018090521UNI000010284d5d1032b1ee5430e944e5a6529b9efe8000000045000000000045000000000000000000000000000000000000000N1809000000022            10100            03031402000141                    0000000450000000000000000000                                                  00000000                                   5b526755776a24e667f7b6b70d4cb18f
07288647000452626708015110  CDA Comércio e Indústria de Metais SP020031110       2018090521UNI000010285f0ae75308f24f6dd27ed9df4228da6f7000000182710000000182710000000000000000000000000000000000000N1809000000023            10200            03031402000141                    0000001827100000000000000000                                                  00000000                                   c7c20bb2854c6543ce48b4c03c18b5bb
09196978000145145906082116  NETW TELECOMUNICAÇÕES LTDA - EPP   SP020031099       2018090521UNI000010286377978f15b68a4667d5deb7afacb2360000000134000000000134000000000000000000000000000000000000000N1809000000026            10600            03031402000141                    0000001340000000000000000000                                                  00000000                                   6385dc4f7daf89bfef495782239d8fa8
57563694000192442015612115  CGE Sociedade Fabric.de Peças PlástSP020030785       2018090521UNI000010287c6ae8d2a007f29184acdb9c6d3bb6765000000053000000000053000000000000000000000000000000000000000N1809000000027            10200            03031402000141                    0000000530000000000000000000                                                  00000000                                   f05192db6a1069733285263e4b40bf8f
06073163000180442196820116  CHICK HOME IND. COM. DE UTILIDADES SP020030787       2018090521UNI00001028830d7fbe19c77c88828645bbc99fc880f000000035000000000035000000000000000000000000000000000000000N1809000000028            10200            03031402000141                    0000000350000000000000000000                                                  00000000                                   3cf166fab40ced94a4b12a06bef590ae
20352600000126143572220117  COMERCIAL RS LTDA                  SP020030994       2018090521UNI000010289016cb7c992369e46c96292bef4f4eb94000000060000000000060000000000000000000000000000000000000000N1809000000029            10100            03031402000141                    0000000600000000000000000000                                                  00000000                                   9d75db636377f3e744310c79460c1658
06262453001225146818674112  CONCRESERV CONCRETO E SERVIÇOS LTDASP020031011       2018090521UNI00001029071680053bf43ce91614fabde2778c361000000090000000000090000000000000000000000000000000000000000N1809000000030            10100            03031402000141                    0000000900000000000000000000                                                  00000000                                   0cd80e06946287d6f2fa991f9ddb8e83
02083009000139115381405114  CONTUFLEX CONEXÕES, TUBOS E FLEXIVESP020030911       2018090521UNI00001029161e5fdcda36850449eddb6fff96c7b70000000140000000000140000000000000000000000000000000000000000N1809000000031            10100            03031402000141                    0000001400000000000000000000                                                  00000000                                   c0ed0f54292e363a546fdedad37418f8
57508426000178626258000113  COOP - COOPERATIVA DE CONSUMO      SP020031065       2018090521UNI000010292d7399b668c21ac796eee016b7c0be579000000070000000000070000000000000000000000000000000000000000N1809000000032            10100            03031402000141                    0000000700000000000000000000                                                  00000000                                   8af05562b903836ae1e3b30d3611a57a
57508426000178626258000113  COOP - COOPERATIVA DE CONSUMO      SP020031095       2018090521UNI000010293efd85bb23f7fb396b90339cefb0aecfa000000040000000000040000000000000000000000000000000000000000N1809000000033            10100            03031402000141                    0000000400000000000000000000                                                  00000000                                   09f1b9403cc4dc8f47d7b815b7fbec87
81800849000141251956229     COOPERATIVA  T. C. DO EST STA CATARSC020031014       2018090521UNI000010294ca443312c955da4f415b088eff4709f9000000084000000000084000000000000000000000000000000000000000N1809000000034            19900            03031402000141                    0000000840000000000000000000                                                  00000000                                   009b76dacf180c7ff050b38c07314686
06247303000190442200855112  COPAJ INDUSTRIA METALURGICA LTDA   SP020030995       2018090521UNI0000102954ff2467db86aa4e2ebc7449fe841ddb1000000060000000000060000000000000000000000000000000000000000N1809000000035            10200            03031402000141                    0000000600000000000000000000                                                  00000000                                   1553d5ca2dc5ea2faefce0f4ce9da314
60813540000116112469082115  IND. E COM. DE PÃES E DOCES COSTA LSP020031069       2018090521UNI00001029621b04d901a577df7db66146e1593ddd5000000070000000000070000000000000000000000000000000000000000N1809000000036            10200            03031402000141                    0000000700000000000000000000                                                  00000000                                   8afdba38e069816894b3e4a594f99ba6
73196644000170442227503115  CROMUS EMBALAGENS IND. E COM. LTDA SP020030931       2018090521UNI0000102978d21c9296768e9d04a0600395ae74dc4000000150000000000150000000000000000000000000000000000000000N1809000000037            10200            03031402000141                    0000001500000000000000000000                                                  00000000                                   7eb9014f753483666d1a160a1b5f015a
025541490001489017070301    CSI CARGO LOGISTICA INTEGRAL S/A   PR020031078       2018090521UNI00001029861cdc47460d0a1bc4cfac2a326d31ab1000000130000000000130000000000000000000000000000000000000000N1809000000038            19900            03031402000141                    0000001300000000000000000000                                                  00000000                                   c7618485050d1818a13e5a9589f0b150
025541490001489017070301    CSI CARGO LOGISTICA INTEGRAL S/A   PR020031077       2018090521UNI000010299aecd36e38423f3e517388602a0a12b60000000130000000000130000000000000000000000000000000000000000N1809000000039            19900            03031402000141                    0000001300000000000000000000                                                  00000000                                   3485997ca1441f3a24a6f955601dbbc2
13317997000150ISENTO        Luar do Paraiso Incorporadora Ltda SP020031071       2018090521UNI00001030049cc9bf30ef7d134bf9ad4f5a56cf980000000100000000000100000000000000000000000000000000000000000N1809000000040            19900            03031402000141                    0000001000000000000000000000                                                  00000000                                   8c1bf1068dcfba2768b29de69fb641b2
48130744000157442999988112  Danfer Ind. Mec. de peças para Maq SP020030791       2018090521UNI0000103016405dbbfbace9e8a8908865eda40dd55000000078000000000078000000000000000000000000000000000000000N1809000000041            10200            03031402000141                    0000000780000000000000000000                                                  00000000                                   297ce5c775d7c8c0cdc1c62170b3269f
24552837000101442325490115  JG TEIXEIRA INDÚSTRIA E COMÉRCIO DESP020030792       2018090521UNI000010302e0c9697cb643683ce8a8b14bc732bc5c000000130000000000130000000000000000000000000000000000000000N1809000000042            10200            03031402000141                    0000001300000000000000000000                                                  00000000                                   6804430c931dfc221825dd9149b09bec
05951758000552146059658118  SINGULAR GESTÃO DE SERVIÇOS LTDA   SP020031079       2018090521UNI000010303d38eb8975eee5025f29dc7f2ad6ad5b2000000099000000000099000000000000000000000000000000000000000S1809000000043            10100            03031402000141                    0000000990000000000000000000                                                  00000000                                   f664575bda70352df834756c3dd4b2c7
05287789000127442003943119  DIALP Indústria e Comércio de auto SP020030794       2018090521UNI00001030403d80ecc04da3954f93353430e25a3e8000000035000000000035000000000000000000000000000000000000000N1809000000044            10200            03031402000141                    0000000350000000000000000000                                                  00000000                                   5c269ac5705b4bb3feebd3ea95156022
11573253000170442281785115  DISTRILIMP Ind Com Prod Limpeza e dSP020031072       2018090521UNI000010305551f6014e5c08758755e72cce3258900000000066000000000066000000000000000000000000000000000000000N1809000000045            10200            03031402000141                    0000000660000000000000000000                                                  00000000                                   dcae9e51a013705b773370ae7a974565
24882180000140442329477117  MARIA DE FÁTIMA DA CRUZ SILVA 35079SP020031108       2018090521UNI00001030675d072ebcc3a44e8146da349495f482d000000036000000000036000000000000000000000000000000000000000N1809000000046            10100            03031402000141                    0000000360000000000000000000                                                  00000000                                   318ea2f932ed1c0f5e43b523f5047338
23803196000158442316204117  DONA CLARA COMÉRCIO DE PROD. DE LIMSP020031094       2018090521UNI0000103077902631dc913d476abbdc85dead8e93d000000060000000000060000000000000000000000000000000000000000N1809000000048            10100            03031402000141                    0000000600000000000000000000                                                  00000000                                   251c3d22cf0a3cb55aa4181a5c042600
13216881000124626862742115  Easy Log Prime Transportes Ltda    SP020030796       2018090521UNI000010308d4649ed1ee6aa128b6537c7a1897f5d8000000090000000000090000000000000000000000000000000000000000N1809000000049            19900            03031402000141                    0000000900000000000000000000                                                  00000000                                   6f67901a9613430887fbf5bd87527115
53174058000118ISENTO        EICON CONTROLES INTELIGENTES DE NEGSP020030798       2018090521UNI000010309cd287b6060e8f4785e81f23654a900b1000000085000000000085000000000000000000000000000000000000000N1809000000050            19900            03031402000141                    0000000850000000000000000000                                                  00000000                                   fe888110bb0e0bee6eeb5cc14357d6fc
04330905000180116098380113  ELINOX CENTRAL DE AÇO INOXIDAVEL LTSP020031047       2018090521UNI0000103109182bcf87a0f35d2adcfb5ae949fe1b4000000234000000000234000000000000000000000000000000000000000N1809000000051            10100            03031402000141                    0000002340000000000000000000                                                  00000000                                   9d9fe3eeb705f85dd6e983d1e7cba6fd
60609088000175111694296112  FAROIS VINCO INDÚSTRIA E COMÉRCIO LSP020030989       2018090521UNI000010311dfb952c81d7560d3c9bdf17742566c2d000000129000000000129000000000000000000000000000000000000000N1809000000052            10200            03031402000141                    0000001290000000000000000000                                                  00000000                                   35070108fb8479720f1ad55aba2a8135
06215714000101442198735116  FATUBOS Imp. Exp. Ind. Com. Metais SP020030802       2018090521UNI0000103129bc20bb7efd4ba5b647d95d18194ec7d000000059000000000059000000000000000000000000000000000000000N1809000000053            10200            03031402000141                    0000000590000000000000000000                                                  00000000                                   1e1f832a4c3b31b6d9548c7dd5f44b58
57506115000170442244240111  Ferkoda S.A. Artefatos de Metais   SP020030803       2018090521UNI0000103132f133fabd23c2e0916bf2744f83a3a08000000113000000000113000000000000000000000000000000000000000N1809000000054            10200            03031402000141                    0000001130000000000000000000                                                  00000000                                   0d6327ae8e9dc0d597942e05eed1d414
1220158100010928369181/1    FIBERNETWORKS INTERNET E DADOS LTDAMS020031017       2018090521UNI000010314747527fedef56d03d18361525ad3c52c000000270000000000270000000000000000000000000000000000000000N1809000000055            10600            03031402000141                    0000002700000000000000000000                                                  00000000                                   385df4d1eace74587ebafe17552af594
29230700000154ISENTO        FIPPARTS INTERMEDIAÇÃO DE NEGÓCIOS SP020031096       2018090521UNI000010315b2903e4e362ea2ca82826dbd5bd8c26c000000095000000000095000000000000000000000000000000000000000N1809000000056            19900            03031402000141                    0000000950000000000000000000                                                  00000000                                   d5b3672f81eb9a8941bf77a0ff34b37c
60645819000138442032562118  Forjafrio Indústria de Peças Ltda  SP020030806       2018090521UNI0000103160e39fb56cfdef012d4670bba95f0bbc0000000080000000000080000000000000000000000000000000000000000N1809000000057            10200            03031402000141                    0000000800000000000000000000                                                  00000000                                   3220e17eb4384bfe4a0e1e5b0fa6e451
44197044000129626083567117  GEO-GRÁFICA E EDITORA LTDA         SP020031033       2018090521UNI000010317c08290e25b06e2099e04a6477627542d000000145000000000145000000000000000000000000000000000000000N1809000000058            10100            03031402000141                    0000001450000000000000000000                                                  00000000                                   9a77d46fcd4a605d63c912cf49de1a3f
04962229000168454271070117  NET MOGI INTERNET PROVIDER LTDA - MSP020030958       2018090521UNI000010318619339a1b8010ab66e549c0fbeeb1145000000080000000000080000000000000000000000000000000000000000N1809000000059            10600            03031402000141                    0000000800000000000000000000                                                  00000000                                   fd6189cdc01a7d32d153704b83afa75e
17909413000196626543753110  GODAH LOG TRANSPORTES E SERVIÇOS EISP020031040       2018090521UNI000010319dd0ac8f3a482ecf126f909fc422efbbd000000079000000000079000000000000000000000000000000000000000N1809000000060            19900            03031402000141                    0000000790000000000000000000                                                  00000000                                   2d36e7202499974cda4442e965094b8a
57291247000121581042264117  HEATMEC INDUSTRIA METALÚRGICA LTDA SP020030914       2018090521UNI000010320e9b7d8070d32d843695f0bc6bf6f7ac0000000099000000000099000000000000000000000000000000000000000N1809000000061            10200            03031402000141                    0000000990000000000000000000                                                  00000000                                   71637b2fd9c28b1349eaf763c7ef1e05
49293194000150109862292110  IMAKe - Indústria e Com. de ProdutoSP020031089       2018090521UNI000010321758c9aa85d953e9d25ed3204d5358bb1000000054000000000054000000000000000000000000000000000000000N1809000000062            10200            03031402000141                    0000000540000000000000000000                                                  00000000                                   a8149d0e393f843da4d9870a34b27eea
51135705000157442026190110  INBRAFILTRO Ind. e Com. de Filtros SP020030816       2018090521UNI0000103226ac3bff3f29373def4abc8d1baa8a71e000000056000000000056000000000000000000000000000000000000000N1809000000063            10200            03031402000141                    0000000560000000000000000000                                                  00000000                                   865c131da7a9a48e19b48555e4b82124
62546098000134442090010111  Incopel Painéis Elétricos Ltda     SP020030817       2018090521UNI0000103237cd621593a69c835ea75d1c344e98647000000065000000000065000000000000000000000000000000000000000N1809000000064            10200            03031402000141                    0000000650000000000000000000                                                  00000000                                   cd62e94282e07e9bb85b1a95063b6609
02881877000164442180108112  Polar Fix Ind. e Com. de Prod. HospSP020030909       2018090521UNI000010324856846a14b760a9d4e94aca04655c991000000059000000000059000000000000000000000000000000000000000N1809000000065            10200            03031402000141                    0000000590000000000000000000                                                  00000000                                   4e95c747282961c8b48acfd6e01e5193
23890448000204647795645116  KAV ENGENHARIA E CONSTRUÇÃO - EIRELSP020031098       2018090521UNI000010325454679d366a5dd0135352f0780a8d5b4000000049500000000049500000000000000000000000000000000000000N1809000000066            10100            03031402000141                    0000000495000000000000000000                                                  00000000                                   b12e4510408fe2d39c51e5b77aeab5a6
60272747000120626210080110  KIO COMERCIAL AGRICOLA LTDA        SP020030980       2018090521UNI00001032651a0ccdb3e4b806c3a488d6a6ec12a59000000150000000000150000000000000000000000000000000000000000N1809000000067            10100            03031402000141                    0000001500000000000000000000                                                  00000000                                   fd21b08cdce075d9e94ceab486c88fb1
0944741100010244222385116   KONNEN - Comércio de Ferramentas LtSP020031091       2018090521UNI00001032740eaa2b89fa2854ef748fc0121756e95000000065000000000065000000000000000000000000000000000000000N1809000000068            10200            03031402000141                    0000000650000000000000000000                                                  00000000                                   5517cdfbe79ab917d8c743027c454282
01820028000138442350059118  Kozzy Alimentos Ltda               SP020031057       2018090521UNI0000103283ddefc368170f88530ba04bfb48d2c41000000130000000000130000000000000000000000000000000000000000N1809000000069            10200            03031402000141                    0000001300000000000000000000                                                  00000000                                   1e2c3087d3851714c457add7621c5448
04118654000175336662186112  LAMINE Tecnologia em Laminados LtdaSP020031090       2018090521UNI0000103297b8d30253fd16eb7003e0241064c45eb000000096000000000096000000000000000000000000000000000000000N1809000000070            10200            03031402000141                    0000000960000000000000000000                                                  00000000                                   9d94aff4247aee72c7486953c17ba3a2
59400853000759442358430119  Líder Indústria e Comércio de BrinqSP020030828       2018090521UNI0000103304297cae0bd24dfff08d5bb653aeae041000000125000000000125000000000000000000000000000000000000000N1809000000071            10200            03031402000141                    0000001250000000000000000000                                                  00000000                                   f15e79e1ed92f189efc890fb740208e8
57486326000198442001142119  Indústria Metalúrgica Lipos Ltda   SP020030830       2018090521UNI000010331352f0fd5818a0ecb96fbdadcabff1bf7000000031000000000031000000000000000000000000000000000000000N1809000000072            10200            03031402000141                    0000000310000000000000000000                                                  00000000                                   c8e3f51e236912b2050e7dde58ac832b
00389481000179041273481     LM TRANSPORTES INTERESTADUAIS SERVIBA020031059       2018090521UNI000010332046b5e0ec3f9609ea471b865e6d89146000000105000000000105000000000000000000000000000000000000000N1809000000073            19900            03031402000141                    0000001050000000000000000000                                                  00000000                                   ec41ba4062769a4e6aa7428011f20fa3
02376381000133626802030111  LOGFARMA DISTRIBUIÇÃO E SERVIÇOS LTSP020030831       2018090521UNI00001033380816d91052f08967d072bcc89b4df71000000100000000000100000000000000000000000000000000000000000N1809000000074            19900            03031402000141                    0000001000000000000000000000                                                  00000000                                   9ede6032e6b1775fc488a6ea08ce2bce
20505576000118143655393118  LSC COMÉRCIO DE BRINQUEDOS E UTIL. SP020031048       2018090521UNI000010334b05cd5c59750d7d38021d64351df4afc000000075000000000075000000000000000000000000000000000000000N1809000000075            10100            03031402000141                    0000000750000000000000000000                                                  00000000                                   f21d644314f7d6ae5725c729c4e03006
69092492000199113645283115  LUBRASFER Serviços de Corte e DobraSP020031029       2018090521UNI000010335b1c6a3ddaebba4d3cdd658ead299cbed000000115000000000115000000000000000000000000000000000000000N1809000000076            10100            03031402000141                    0000001150000000000000000000                                                  00000000                                   098b14a56f5d57e380a6d8b2b1811fea
68901370000133442079026110  Luxtel Fibras Indústria e Comércio SP020030835       2018090521UNI000010336f17a885829737f7379bedf7bcd6065d8000000085000000000085000000000000000000000000000000000000000N1809000000077            10200            03031402000141                    0000000850000000000000000000                                                  00000000                                   d1947e901a018b774ef0e7d930e9fffb
01625744000164114800316114  PLÁSTICOS MACHINI LTDA             SP020031082       2018090521UNI000010337de31c6ee8f9d495ced85c74c5659c114000000115000000000115000000000000000000000000000000000000000N1809000000078            10200            03031402000141                    0000001150000000000000000000                                                  00000000                                   ffd0b48895da9645920f16300ecd6ecb
21360772000295635978633115  Restaurante Madero Piracicaba Ltda SP020031088       2018090521UNI0000103384bfbd0684360b641c5f11c7d87cf26c0000000059000000000059000000000000000000000000000000000000000N1809000000079            10100            03031402000141                    0000000590000000000000000000                                                  00000000                                   21295658cb42271fa66b0103278131fb
04113141000333442244996114  MANKIEWICZ DO BRASIL & CIA         SP020031028       2018090521UNI00001033956cf26d16c9f96a5d3bb52aaa5951afc000000099000000000099000000000000000000000000000000000000000N1809000000080            10200            03031402000141                    0000000990000000000000000000                                                  00000000                                   a70f0d606305cbc9c5afc851ca7c15d6
21539562000188442287853118  MA PET SHOP COMERCIAL EIRELLE      SP020031073       2018090521UNI0000103408f6e8f528f3a2c92ed057d612658c620000000045000000000045000000000000000000000000000000000000000N1809000000081            10100            03031402000141                    0000000450000000000000000000                                                  00000000                                   351684899c85a65182697ae08c6cc8b2
15080217000126442148756112  MASTIFLEX Indústria de Selantes e MSP020030838       2018090521UNI000010341bf13edb0fc1d55ede9c73da70d4ca08e000000055000000000055000000000000000000000000000000000000000N1809000000082            10200            03031402000141                    0000000550000000000000000000                                                  00000000                                   5164b0a0dae2322510e9b8e8ca00e4d7
11573449000165ISENTO        Estrela Central de Administração e SP020030840       2018090521UNI0000103429fa02e30487d53e83b3150943ec147d6000000120000000000120000000000000000000000000000000000000000N1809000000083            19900            03031402000141                    0000001200000000000000000000                                                  00000000                                   7fc32c0a3f86fafafd4b890ee7206e3f
49533078000160442024310112  Industria Metalúrgica Max-del ltda SP020030841       2018090521UNI000010343a471c3eb9072697846330f2dae8325e3000000126000000000126000000000000000000000000000000000000000N1809000000084            10200            03031402000141                    0000001260000000000000000000                                                  00000000                                   f380cafe9312eb992e937ee5fcee6590
02282844000106ISENTO        Santo André Planos de Assistência MSP020030843       2018090521UNI000010344c9e18888dbca018f0f0aca7eca1299ef000000150000000000150000000000000000000000000000000000000000N1809000000085            19900            03031402000141                    0000001500000000000000000000                                                  00000000                                   d921594257bc10a34b71c51e858c2be7
03183544000124118460919115  MEGABETON SERVIÇOS DE CONCRETAGEM LSP020031109       2018090521UNI0000103455b94b18c14bd45404826a22c1ad863e1000000099000000000099000000000000000000000000000000000000000N1809000000087            10100            03031402000141                    0000000990000000000000000000                                                  00000000                                   5a3af8beb209a6d9b95014b9b98cb10d
01553804000180442099630110  MEGA BRASIL IND. E COM. DE EQUIP. ISP020030844       2018090521UNI000010346ce73fd0b2e47841453335e2798158ffe000000099000000000099000000000000000000000000000000000000000N1809000000088            10200            03031402000141                    0000000990000000000000000000                                                  00000000                                   41195a39de48ce4475ff22368434b26a
05064859000188442188934116  Megaquimica Embalagens e Produtos QSP020030845       2018090521UNI000010347ecc3df8ca1bcd24a6e481f28a64fe300000000060000000000060000000000000000000000000000000000000000N1809000000089            10200            03031402000141                    0000000600000000000000000000                                                  00000000                                   c2866fd01174c0249752eb46dad2e37b
04845049000104143945035119  ARGOS INDUSTRIAL EIRELE - ME       SP020031019       2018090521UNI00001034810ba2782306df0cb5ed7468f82f0263b000000090000000000090000000000000000000000000000000000000000N1809000000090            19900            03031402000141                    0000000900000000000000000000                                                  00000000                                   b86c85d825e299747929ec3a95bb5071
74444241000166110276747117  SUPERMERCADO DO CARMO LTDA         SP020031018       2018090521UNI00001034982986cfdf7a38406616da7546a42d001000000095000000000095000000000000000000000000000000000000000N1809000000091            10100            03031402000141                    0000000950000000000000000000                                                  00000000                                   1dee8ffddc5d60d8629b330918d08e0c
05982409000174581142659110  METAL CRUX INDÚSTRIA E COMÉRCIO LTDSP020031053       2018090521UNI00001035030588f4964ced4b4fed09da7009d8c11000000023000000000023000000000000000000000000000000000000000N1809000000092            10200            03031402000141                    0000000230000000000000000000                                                  00000000                                   7c62bb96603aa151910a8baf7f735d82
03391789000147442117372117  METAL LINX LTDA                    SP020031023       2018090521UNI0000103515039b520aeb6e5bf73b06b4e18112b00000000038000000000038000000000000000000000000000000000000000N1809000000093            10200            03031402000141                    0000000380000000000000000000                                                  00000000                                   f6c6cacd582988c59f09006128c10966
23826885000188118999890113  METALPLAX COMÉRCIO DE PLÁSTICOS E MSP020031092       2018090521UNI00001035225b47821e173ef25382becee5f7dd66d000000059000000000059000000000000000000000000000000000000000N1809000000094            10100            03031402000141                    0000000590000000000000000000                                                  00000000                                   22384c089c960430fec9a48a3eaf43d0
43032358000109442128550115  MITSUI PRIME ADVANCED COMP DO BRASISP020031101       2018090521UNI000010353d8fccba84da996065376b9455fe8104c000000087000000000087000000000000000000000000000000000000000N1809000000095            10200            03031402000141                    0000000870000000000000000000                                                  00000000                                   cff467d6227f0dabee68b82eeffefa44
63081764000179108523528110  MONTCALM Montagens Industriais S.A.SP020030851       2018090521UNI000010354fed15ac3553a67ff95770059581df2d0000000110000000000110000000000000000000000000000000000000000N1809000000096            10200            03031402000141                    0000001100000000000000000000                                                  00000000                                   c5c779295d3e6f8add0af030a7b8411a
00591780000191442001009110  TRANSPORTADORA MOROMIZATO LTDA     SP020030970       2018090521UNI00001035582ccb7a4975818d4ecd88ebe6d65ba8a000000110000000000110000000000000000000000000000000000000000N1809000000097            19900            03031402000141                    0000001100000000000000000000                                                  00000000                                   affcea6a6a434c3d32102661de29fd16
53585766000575442202779113  MULTIAÇOS IND.COM. DE PROD. TÉCNICOSP020030853       2018090521UNI000010356bcf324a3877d3a8515873b6f7fa46d4d000000160000000000160000000000000000000000000000000000000000N1809000000098            10200            03031402000141                    0000001600000000000000000000                                                  00000000                                   3ade1bbf05d363be39742e1099770311
07801105000199635524359115  NEOLIDER COMÉRCIO IMPORT E EXPORT DSP020031080       2018090521UNI00001035741ab53e1c7db797c5593ef4c925960c9000000175000000000175000000000000000000000000000000000000000N1809000000099            10100            03031402000141                    0000001750000000000000000000                                                  00000000                                   e53fd7b5be71bf857d99cb482031c449
09196978000145145906082116  NETW TELECOMUNICAÇÕES LTDA - EPP   SP020031016       2018090521UNI000010358e5df0f7a310c8bf4eb32e239c13f32f9000000080000000000080000000000000000000000000000000000000000N1809000000100            10600            03031402000141                    0000000800000000000000000000                                                  00000000                                   46869aab217b3b028d1057bd25aecc1a
28583150000194626940646115  DENTAL ITA COM. PROD. E EQUIP. ODONSP020031074       2018090521UNI0000103590387841bbe6154062099ea30dd7e59a2000000060000000000060000000000000000000000000000000000000000N1809000000101            10100            03031402000141                    0000000600000000000000000000                                                  00000000                                   7465c84df342282dad1efbd56761bc0c
61192308000170100154737115  OXFORT CONSTRUÇÕES LTDA            SP020031063       2018090521UNI00001036000ba4559cd0913560c31790d1d323f91000000120000000000120000000000000000000000000000000000000000N1809000000102            10100            03031402000141                    0000001200000000000000000000                                                  00000000                                   b46640eb37486730543bde16db4d290d
04831417000157116293314110  PALMONT CONSTRUÇÃO E MONTAGEM INDUSSP020031105       2018090521UNI000010361c74b28a6eaa69c7e81b69f7aa9f67abf000000060000000000060000000000000000000000000000000000000000N1809000000103            10100            03031402000141                    0000000600000000000000000000                                                  00000000                                   3d86eccc4ddeeb2a531498d5f0381725
11383233000137ISENTO        Carlos Cortez de Souza Martins EsquSP020030856       2018090521UNI000010362e19c010e932c93bea0253d3e69aab1a2000000023000000000023000000000000000000000000000000000000000N1809000000104            10100            03031402000141                    0000000230000000000000000000                                                  00000000                                   4533ad2785fb0391958279a65951b082
04290926000110442193947117  Permatti Ind. Com. De Plásticos LtdSP020030858       2018090521UNI0000103638cccdfb6d83ca11597d7841af799b82e000000075000000000075000000000000000000000000000000000000000N1809000000105            10200            03031402000141                    0000000750000000000000000000                                                  00000000                                   2cb4df0efeeae494cccda528a94497d2
08200314000140149371332116  PETCOM COM. DE PRODUTOS PARA ANIMAISP020031026       2018090521UNI000010364a8d0e6a7a0e0bdafb769fe493ff94fe1000000055000000000055000000000000000000000000000000000000000N1809000000106            10100            03031402000141                    0000000550000000000000000000                                                  00000000                                   30fd7696e9ac5b55ba473f4cd450eb78
070627080001169054838465    PLASTCORE IND E COM DE PLÁSTICOS E PR020031064       2018090521UNI000010365fda031bc31c8b9fb5fff57d1a7457085000000082000000000082000000000000000000000000000000000000000N1809000000107            10100            03031402000141                    0000000820000000000000000000                                                  00000000                                   e75d6e58b3bc73c418be5ef0a4f41fa3
57484222000144442187255114  PLASTICOS REGINA S/A               SP020030861       2018090521UNI0000103666346cede8e48b546e196184463cee35e000000029000000000029000000000000000000000000000000000000000N1809000000109            10200            03031402000141                    0000000290000000000000000000                                                  00000000                                   fd7d02bd3f5fc572394a274303b81cf6
09344589000110ISENTO        Policlean Sistemas Ambientais Ltda SP020031068       2018090521UNI000010367c8cec725b044d4ffa743c91168ad3a2f000000067000000000067000000000000000000000000000000000000000N1809000000110            19900            03031402000141                    0000000670000000000000000000                                                  00000000                                   f98b7a2df468a02328c4dad514a2599f
44211340000137442116491111  Poliembalagens Ind e Com de EmbalagSP020030862       2018090521UNI000010368508a54940efff81d7a485de72c63f911000000110000000000110000000000000000000000000000000000000000N1809000000111            10200            03031402000141                    0000001100000000000000000000                                                  00000000                                   b2018d6d172fdd3a4e7089459c62b767
29067113016009115432384110  POLIMIX CONCRETO LTDA              SP020031025       2018090521UNI0000103695fc3e94e0a750bd90799f48c163fa9db000000105000000000105000000000000000000000000000000000000000N1809000000112            10100            03031402000141                    0000001050000000000000000000                                                  00000000                                   9ee40e1f1c78c41a7f8d895da7f80b29
17882286000189442173148112  POLI POSITIVO IND. COM. IMP. E EXPOSP020030943       2018090521UNI0000103700633361d899380f055c34ca17e17532a000000099000000000099000000000000000000000000000000000000000N1809000000113            10200            03031402000141                    0000000990000000000000000000                                                  00000000                                   5c3fd54e4e49de8a1531f83cbe6793d3
47290002000126635068887112  POSTO STATUS LTDA                  SP020031085       2018090521UNI0000103710080e06fb161394b2d179b544eb5019f000000070000000000070000000000000000000000000000000000000000N1809000000114            10100            03031402000141                    0000000700000000000000000000                                                  00000000                                   a3ce6b445548fbc48f2d5be89acc56ed
05134486000174116396196110  PRABICHO INDUSTRIA E COMERCIO LTDA SP020031049       2018090521UNI000010372f4b885661852ced65fa55534cf667e22000000085000000000085000000000000000000000000000000000000000N1809000000115            10200            03031402000141                    0000000850000000000000000000                                                  00000000                                   8ea574216d230806d04b8bd7d473f0c1
54474853000194442079443110  PRE-MOLD RM INDÚSTRIA E COMÉRCIO LTSP020030864       2018090521UNI000010373f24c56580065b56dbedcf7204cfeb0d3000000030000000000030000000000000000000000000000000000000000N1809000000116            10200            03031402000141                    0000000300000000000000000000                                                  00000000                                   f859430af254f28a9fa8649281b37d21
57550980000113442031032110  PRIMOTECNICA MECÂNICA E ELETRICIDADSP020030866       2018090521UNI000010374536cc619315d2f6297884da4d7be6f9b000000100000000000100000000000000000000000000000000000000000N1809000000117            10200            03031402000141                    0000001000000000000000000000                                                  00000000                                   ade36a33ef7db40fbded9b647ce447e8
62227509000129112557353110  QUANTIQ DISTRIBUIDORA LTDA         SP020031102       2018090521UNI000010375e76f94e252be4c89b4ccfc973d9ecb56000000100000000000100000000000000000000000000000000000000000N1809000000118            10100            03031402000141                    0000001000000000000000000000                                                  00000000                                   0211c0eff565e0372ad1855c1f7305b2
63106249000104108538074110  Gráfica e Editora Sarapuí Ltda     SP020030874       2018090521UNI0000103766ac4eab9670bc507b2191da8e6e661ee000000240000000000240000000000000000000000000000000000000000N1809000000119            10200            03031402000141                    0000002400000000000000000000                                                  00000000                                   134251e9f5a1be7b22810f19a0ac20d0
14813983000190626434208110  SCHUNK INTEC TECNOLOGIA DE FIX. E SSP020031100       2018090521UNI000010377ab3f6804d64ec1708ad5cbc536d8a30f000000075000000000075000000000000000000000000000000000000000N1809000000120            10100            03031402000141                    0000000750000000000000000000                                                  00000000                                   8a6c7a3379d9e7e0c80261eb8e027356
04331943000158035216886910  SEKRON SERVIÇOS LTDA               SP020031087       2018090521UNI0000103780d4f2e803b4afe90d57abb37fc9e9663000000030000000000030000000000000000000000000000000000000000N1809000000121            10100            03031402000141                    0000000300000000000000000000                                                  00000000                                   604a7f0f569d358121b43078452d020a
04331943000158035216886910  SEKRON SERVIÇOS LTDA               SP020031086       2018090521UNI000010379c7762af1f30a15e9debf9a12f4715bec000000030000000000030000000000000000000000000000000000000000N1809000000122            10100            03031402000141                    0000000300000000000000000000                                                  00000000                                   96b5eab290e07f362c646a3c0fef8d13
60872306004076635088345114  SHERWIN-WILLIANS DO BRASIL INDÚSTRISP020031043       2018090521UNI00001038089e9450bb758a544cc9f2f95bb8faf30000000400000000000400000000000000000000000000000000000000000N1809000000123            10200            03031402000141                    0000004000000000000000000000                                                  00000000                                   699ef62458c168ef03054c324f8d166b
10303813000104148272882115  SHOCK IMPORTS COMERCIAL LTDA - EPP SP020030910       2018090521UNI000010381a794cbae35ab68363fdc64fbcafdad27000000085000000000085000000000000000000000000000000000000000N1809000000124            10100            03031402000141                    0000000850000000000000000000                                                  00000000                                   7a3dd71ddd3644ac9b85e914db15c0c2
10219044000160119538451113  SILBERBLITZ COMÉRCIO DE METAIS LTDASP020031104       2018090521UNI000010382727b42808406940592f776fe3e8b60d4000000059000000000059000000000000000000000000000000000000000N1809000000125            10100            03031402000141                    0000000590000000000000000000                                                  00000000                                   58a34497fb87387550921e1e5963a3ba
53191151000130442105142112  Silmafer Indústria Metalúrgica LtdaSP020030878       2018090521UNI0000103832d601ca36a941e1f48b79ec7da8ad71b000000028000000000028000000000000000000000000000000000000000N1809000000126            10200            03031402000141                    0000000280000000000000000000                                                  00000000                                   942ae3b88496c11a80f89710f80cf90a
10912157000147ISENTO        SINGULAR ENSINO FORTE LTDA - EPP   SP020030974       2018090521UNI000010384f141ef3f40f6452e6f039d49ce594aa3000000130000000000130000000000000000000000000000000000000000N1809000000127            19900            03031402000141                    0000001300000000000000000000                                                  00000000                                   dd5603fdfdb9f259d6be77ffd76233f5
03627873000117647317479115  BORGES & SARANDELI - S. J. RIO PRETSP020031045       2018090521UNI000010385ae895e5cfb682ee39de5b1c60cd008fb000000070000000000070000000000000000000000000000000000000000N1809000000128            19900            03031402000141                    0000000700000000000000000000                                                  00000000                                   35a1c4b7cfd4846968d6d474c9705397
14397118000100442141228114  STANKA PRODUTOS E SERVIÇOS LTDA    SP020031020       2018090521UNI0000103864c4eebef8a8763f2c54728af4723ba68000000058000000000058000000000000000000000000000000000000000N1809000000129            10200            03031402000141                    0000000580000000000000000000                                                  00000000                                   ab32bf4ad8509afafee11b33ba4f3811
05259698000188ISENTO        ENSINO FUNDAMENTAL I NC LTDA - EPP SP020031022       2018090521UNI0000103873e9694969622ccc5a8635fe7d7ea1c36000000235000000000235000000000000000000000000000000000000000N1809000000130            19900            03031402000141                    0000002350000000000000000000                                                  00000000                                   19df6e209ead9ee08313f455df3fbe3b
03077452001646535376039110  SUPRICEL Logística Ltda            SP020031070       2018090521UNI0000103881d68e00b98f7bfc75ad5d891ce32e362000000270000000000270000000000000000000000000000000000000000N1809000000131            19900            03031402000141                    0000002700000000000000000000                                                  00000000                                   3ff03f4183a5e5fac4c03b4644232726
61471264000118581030424110  SWB Indústria Mecânica e Automação SP020030883       2018090521UNI0000103894ee3117300f18d2494c2d3b259d7f61d000000018000000000018000000000000000000000000000000000000000N1809000000132            10200            03031402000141                    0000000180000000000000000000                                                  00000000                                   97c86b87ce08ca1b9e39e1b267b2a08f
09262608000320ISENTO        TBFORTE SEGURANÇA E TRANSPORTE DE VSP020030887       2018090521UNI0000103902296a73162caefb4f8ba71ba2bce256a000000368000000000368000000000000000000000000000000000000000N1809000000133            19900            03031402000141                    0000003680000000000000000000                                                  00000000                                   afb2f0a87cabd480973ce4578fba1c67
16462473000140442113711112  TECHMOL INDÚSTRIA E COM DE MOLAS E SP020031038       2018090521UNI000010391c62c752d04c71bdf08557bf55a2c91c1000000056000000000056000000000000000000000000000000000000000N1809000000134            10200            03031402000141                    0000000560000000000000000000                                                  00000000                                   b4627881530cf1d0a525d8c1aedb25ca
04951466000123116332444118  TECTUBOS - TECNOLOGIA EM TUBOS IND.SP020030929       2018090521UNI000010392aac3df66cb94a34db071e88784bed8d8000000075000000000075000000000000000000000000000000000000000N1809000000135            10200            03031402000141                    0000000750000000000000000000                                                  00000000                                   69bf48531cc555670244fb7541b3d017
01477885000691581144493119  TUBOS IPIRANGA IND. E COM. LTDA    SP020030954       2018090521UNI0000103934c50537a25ec4822894e44ec39487121000000100000000000100000000000000000000000000000000000000000N1809000000136            10200            03031402000141                    0000001000000000000000000000                                                  00000000                                   96ad8cd2ba3956c6283ec4999ccad12b
57559387000138626253286110  VERZANI & SANDRINI LTDA            SP020030894       2018090521UNI000010394b1dba68568756268f1ce356554032496000000056000000000056000000000000000000000000000000000000000N1809000000137            10100            03031402000141                    0000000560000000000000000000                                                  00000000                                   a0476c3aa245f75733e360111cc6ab54
30360029000145442392684118  VILLACRIL TINTAS LTDA              SP020031103       2018090521UNI00001039528ea1a22dd71c6760eb1e0ca7b27f45a000000040000000000040000000000000000000000000000000000000000N1809000000138            10200            03031402000141                    0000000400000000000000000000                                                  00000000                                   a32ba8331406fd5340d0dca32d87945b
07407057000159636284900110  INDÚSTRIA E COMÉRCIO DE AUTO PEÇAS SP020031054       2018090521UNI000010396f8081107b36abe62fab626304a68805f000000049000000000049000000000000000000000000000000000000000N1809000000139            10200            03031402000141                    0000000490000000000000000000                                                  00000000                                   e1839f1e952687654d87724d6d12b6d7
05951758000552146059658118  SINGULAR GESTÃO DE SERVIÇOS LTDA   SP020031079       2018091221UNI000010397562459a552d5deb66e4067e7b6af5ece000000099000000000099000000000000000000000000000000000000000N1809000000140            10100            03031402000141                    0000000990000000000000000000                                                  00000000                                   26ebbee294356f7f62da394d9cbdf609
